:100000000C9434000C943E000C943E000C943E0082
:100010000C943E000C943E000C943E000C943E0068
:100020000C943E000C943E000C943E000C943E0058
:100030000C943E000C943E000C943E000C943E0048
:100040000C943E000C943E000C943E000C943E0038
:100050000C943E000C943E000C943E000C943E0028
:100060000C943E000C943E0011241FBECFEFD8E04C
:10007000DEBFCDBF0E9440000C9400020C94000033
:100080000FEF0DBF08E00EBF04EF0AB90FE304B98C
:1000900000E307B907E008B901E005BD772733277A
:1000A0000DD120E010E1A2D0902F11E19FD0802F40
:1000B0009F3F29F48F3F19F492E184E38FD01BD145
:1000C00029D1133219F01A3289F0FACF1ED103E484
:1000D00072D10FE470D104E46ED105E46CD10AE36F
:1000E0006AD1DED098D00130A1F033C00ED103D157
:1000F00007E561D109E45FD100E55DD105E45BD19D
:100100000FEF20E010E179D00FEF11E176D0459AA2
:10011000FFCF7727F0D00FE44ED100E54CD105E4B6
:100120004AD10EE448D1459A5FD16FD08327332757
:1001300055D0E1D00EE43FD105E43DD108E53BD1F7
:1001400004E539D10AE337D190D04ED14DD145984D
:10015000B6CF7395D0D005E42ED102E52CD102E5BF
:100160002AD10FE428D102E526D1449A15D13CD1F9
:10017000449872300CF4A3CFBED00CE41CD10FE431
:100180001AD103E418D10BE416D10AE314D1482F95
:1001900042954F7066D0842E482F4F7062D0942EB7
:1001A000082D005D08D1092D005D05D100EC01D1BD
:1001B00077D029E02819009100010053021749F473
:1001C00029E02919009101010053021711F4772742
:1001D00076CF91D00FE3EFD007D1CECF20E010E162
:1001E000092F0BD011E1082F08D00895F999FECFFF
:1001F00022BD11BDF89A00B50895F999FECF22BD30
:1002000011BD00BDFA9AF99A0895880F991F10F44C
:1002100004EB80270895492F42954F7022D05091CA
:10022000000150534517D9F4492F4F701AD05091FF
:1002300001015053451799F4482F42954F7011D042
:10024000509102015053451751F4482F4F7009D077
:10025000509103015053451711F401E0089500E057
:1002600008954A3008F04A500895492F42954F703A
:10027000F8DF405D042F9FD0492F4F70F2DF405DC3
:10028000042F99D0482F42954F70EBDF405D042F2B
:1002900092D0482F4F70E5DF405D042F8CD0089539
:1002A000A0E0B1E060E02BD0133239F01D93012FB4
:1002B00082D02BD063956430B1F7089590D08FD061
:1002C0002C9800E30BB970D08AD000E30BB96CD046
:1002D00086D000E30BB968D082D000E20BB964D0BD
:1002E0007ED008E266D008E064D005D006E061D098
:1002F0000CE05FD0089501E05CD071D008950AD081
:100300001F3FE9F306B53027089504D01F3FE9F7F2
:100310005FD00895289A299A2A9A2B9A2898000043
:10032000309B11E3309B0895319B12E3319B08957C
:10033000329B13E3329B0895289A29980000309B42
:1003400014E3309B0895319B15E3319B0895329B54
:1003500016E3329B0895299A2A980000309B17E3F0
:10036000309B0895319B18E3319B0895329B19E32C
:10037000329B08952A9A2B980000309B1AE2309BFA
:100380000895319B10E3319B0895329B13E2329B19
:1003900008952B9A1FEF089568EC5A9A19D05A982D
:1003A00017D06A95D1F708952D9A12D02D9810D0B4
:1003B00008952C9801C02C9A1F93102F107F1BB901
:1003C000F3DF102F1295107F1BB9EEDF1F910895F8
:1003D00044E158EC5A95F1F74A95D9F7089564E14C
:1003E000F7DF6A95E9F7089544E65FEF64E60000F9
:1003F00000006A95E1F75A95C9F74A95B1F7089553
:04040000F894FFCF9E
:06040400000000000000F2
:00000001FF
